{
  "_format": "hh-sol-artifact-1",
  "contractName": "YellowHearts",
  "sourceName": "contracts/YellowHearts.sol",
  "abi": [
    {
      "inputs": [],
      "stateMutability": "nonpayable",
      "type": "constructor"
    },
    {
      "anonymous": false,
      "inputs": [
        {
          "indexed": true,
          "internalType": "address",
          "name": "owner",
          "type": "address"
        },
        {
          "indexed": true,
          "internalType": "address",
          "name": "approved",
          "type": "address"
        },
        {
          "indexed": true,
          "internalType": "uint256",
          "name": "tokenId",
          "type": "uint256"
        }
      ],
      "name": "Approval",
      "type": "event"
    },
    {
      "anonymous": false,
      "inputs": [
        {
          "indexed": true,
          "internalType": "address",
          "name": "owner",
          "type": "address"
        },
        {
          "indexed": true,
          "internalType": "address",
          "name": "operator",
          "type": "address"
        },
        {
          "indexed": false,
          "internalType": "bool",
          "name": "approved",
          "type": "bool"
        }
      ],
      "name": "ApprovalForAll",
      "type": "event"
    },
    {
      "anonymous": false,
      "inputs": [
        {
          "indexed": true,
          "internalType": "address",
          "name": "previousOwner",
          "type": "address"
        },
        {
          "indexed": true,
          "internalType": "address",
          "name": "newOwner",
          "type": "address"
        }
      ],
      "name": "OwnershipTransferred",
      "type": "event"
    },
    {
      "anonymous": false,
      "inputs": [
        {
          "indexed": true,
          "internalType": "address",
          "name": "from",
          "type": "address"
        },
        {
          "indexed": true,
          "internalType": "address",
          "name": "to",
          "type": "address"
        },
        {
          "indexed": true,
          "internalType": "uint256",
          "name": "tokenId",
          "type": "uint256"
        }
      ],
      "name": "Transfer",
      "type": "event"
    },
    {
      "inputs": [
        {
          "internalType": "address",
          "name": "to",
          "type": "address"
        },
        {
          "internalType": "uint256",
          "name": "tokenId",
          "type": "uint256"
        }
      ],
      "name": "approve",
      "outputs": [],
      "stateMutability": "nonpayable",
      "type": "function"
    },
    {
      "inputs": [
        {
          "internalType": "address",
          "name": "owner",
          "type": "address"
        }
      ],
      "name": "balanceOf",
      "outputs": [
        {
          "internalType": "uint256",
          "name": "",
          "type": "uint256"
        }
      ],
      "stateMutability": "view",
      "type": "function"
    },
    {
      "inputs": [
        {
          "internalType": "string",
          "name": "newURI",
          "type": "string"
        }
      ],
      "name": "changeBaseURI",
      "outputs": [],
      "stateMutability": "nonpayable",
      "type": "function"
    },
    {
      "inputs": [
        {
          "internalType": "uint256",
          "name": "quantity",
          "type": "uint256"
        }
      ],
      "name": "claim",
      "outputs": [],
      "stateMutability": "payable",
      "type": "function"
    },
    {
      "inputs": [
        {
          "internalType": "uint256",
          "name": "tokenId",
          "type": "uint256"
        }
      ],
      "name": "getApproved",
      "outputs": [
        {
          "internalType": "address",
          "name": "",
          "type": "address"
        }
      ],
      "stateMutability": "view",
      "type": "function"
    },
    {
      "inputs": [
        {
          "internalType": "address",
          "name": "owner",
          "type": "address"
        },
        {
          "internalType": "address",
          "name": "operator",
          "type": "address"
        }
      ],
      "name": "isApprovedForAll",
      "outputs": [
        {
          "internalType": "bool",
          "name": "",
          "type": "bool"
        }
      ],
      "stateMutability": "view",
      "type": "function"
    },
    {
      "inputs": [
        {
          "internalType": "address",
          "name": "recipient",
          "type": "address"
        }
      ],
      "name": "isWhitelisted",
      "outputs": [
        {
          "internalType": "bool",
          "name": "",
          "type": "bool"
        }
      ],
      "stateMutability": "view",
      "type": "function"
    },
    {
      "inputs": [],
      "name": "maxMintCount",
      "outputs": [
        {
          "internalType": "uint256",
          "name": "",
          "type": "uint256"
        }
      ],
      "stateMutability": "view",
      "type": "function"
    },
    {
      "inputs": [
        {
          "internalType": "address",
          "name": "recipient",
          "type": "address"
        },
        {
          "internalType": "uint256",
          "name": "tokenId",
          "type": "uint256"
        }
      ],
      "name": "mintNFT",
      "outputs": [],
      "stateMutability": "nonpayable",
      "type": "function"
    },
    {
      "inputs": [],
      "name": "mintPrice",
      "outputs": [
        {
          "internalType": "uint256",
          "name": "",
          "type": "uint256"
        }
      ],
      "stateMutability": "view",
      "type": "function"
    },
    {
      "inputs": [],
      "name": "name",
      "outputs": [
        {
          "internalType": "string",
          "name": "",
          "type": "string"
        }
      ],
      "stateMutability": "view",
      "type": "function"
    },
    {
      "inputs": [],
      "name": "owner",
      "outputs": [
        {
          "internalType": "address",
          "name": "",
          "type": "address"
        }
      ],
      "stateMutability": "view",
      "type": "function"
    },
    {
      "inputs": [
        {
          "internalType": "uint256",
          "name": "tokenId",
          "type": "uint256"
        }
      ],
      "name": "ownerOf",
      "outputs": [
        {
          "internalType": "address",
          "name": "",
          "type": "address"
        }
      ],
      "stateMutability": "view",
      "type": "function"
    },
    {
      "inputs": [],
      "name": "payableAddress",
      "outputs": [
        {
          "internalType": "address payable",
          "name": "",
          "type": "address"
        }
      ],
      "stateMutability": "view",
      "type": "function"
    },
    {
      "inputs": [],
      "name": "renounceOwnership",
      "outputs": [],
      "stateMutability": "nonpayable",
      "type": "function"
    },
    {
      "inputs": [
        {
          "internalType": "address",
          "name": "from",
          "type": "address"
        },
        {
          "internalType": "address",
          "name": "to",
          "type": "address"
        },
        {
          "internalType": "uint256",
          "name": "tokenId",
          "type": "uint256"
        }
      ],
      "name": "safeTransferFrom",
      "outputs": [],
      "stateMutability": "nonpayable",
      "type": "function"
    },
    {
      "inputs": [
        {
          "internalType": "address",
          "name": "from",
          "type": "address"
        },
        {
          "internalType": "address",
          "name": "to",
          "type": "address"
        },
        {
          "internalType": "uint256",
          "name": "tokenId",
          "type": "uint256"
        },
        {
          "internalType": "bytes",
          "name": "_data",
          "type": "bytes"
        }
      ],
      "name": "safeTransferFrom",
      "outputs": [],
      "stateMutability": "nonpayable",
      "type": "function"
    },
    {
      "inputs": [
        {
          "internalType": "address",
          "name": "operator",
          "type": "address"
        },
        {
          "internalType": "bool",
          "name": "approved",
          "type": "bool"
        }
      ],
      "name": "setApprovalForAll",
      "outputs": [],
      "stateMutability": "nonpayable",
      "type": "function"
    },
    {
      "inputs": [
        {
          "internalType": "bytes4",
          "name": "interfaceId",
          "type": "bytes4"
        }
      ],
      "name": "supportsInterface",
      "outputs": [
        {
          "internalType": "bool",
          "name": "",
          "type": "bool"
        }
      ],
      "stateMutability": "view",
      "type": "function"
    },
    {
      "inputs": [],
      "name": "symbol",
      "outputs": [
        {
          "internalType": "string",
          "name": "",
          "type": "string"
        }
      ],
      "stateMutability": "view",
      "type": "function"
    },
    {
      "inputs": [
        {
          "internalType": "uint256",
          "name": "index",
          "type": "uint256"
        }
      ],
      "name": "tokenByIndex",
      "outputs": [
        {
          "internalType": "uint256",
          "name": "",
          "type": "uint256"
        }
      ],
      "stateMutability": "view",
      "type": "function"
    },
    {
      "inputs": [
        {
          "internalType": "address",
          "name": "owner",
          "type": "address"
        },
        {
          "internalType": "uint256",
          "name": "index",
          "type": "uint256"
        }
      ],
      "name": "tokenOfOwnerByIndex",
      "outputs": [
        {
          "internalType": "uint256",
          "name": "",
          "type": "uint256"
        }
      ],
      "stateMutability": "view",
      "type": "function"
    },
    {
      "inputs": [
        {
          "internalType": "uint256",
          "name": "tokenId",
          "type": "uint256"
        }
      ],
      "name": "tokenURI",
      "outputs": [
        {
          "internalType": "string",
          "name": "",
          "type": "string"
        }
      ],
      "stateMutability": "view",
      "type": "function"
    },
    {
      "inputs": [],
      "name": "totalSupply",
      "outputs": [
        {
          "internalType": "uint256",
          "name": "",
          "type": "uint256"
        }
      ],
      "stateMutability": "view",
      "type": "function"
    },
    {
      "inputs": [
        {
          "internalType": "address",
          "name": "from",
          "type": "address"
        },
        {
          "internalType": "address",
          "name": "to",
          "type": "address"
        },
        {
          "internalType": "uint256",
          "name": "tokenId",
          "type": "uint256"
        }
      ],
      "name": "transferFrom",
      "outputs": [],
      "stateMutability": "nonpayable",
      "type": "function"
    },
    {
      "inputs": [
        {
          "internalType": "address",
          "name": "newOwner",
          "type": "address"
        }
      ],
      "name": "transferOwnership",
      "outputs": [],
      "stateMutability": "nonpayable",
      "type": "function"
    },
    {
      "inputs": [
        {
          "internalType": "address",
          "name": "recipient",
          "type": "address"
        }
      ],
      "name": "whitelistAddress",
      "outputs": [],
      "stateMutability": "nonpayable",
      "type": "function"
    },
    {
      "inputs": [
        {
          "internalType": "address[]",
          "name": "recipients",
          "type": "address[]"
        },
        {
          "internalType": "uint256",
          "name": "count",
          "type": "uint256"
        }
      ],
      "name": "whitelistAddresses",
      "outputs": [],
      "stateMutability": "nonpayable",
      "type": "function"
    },
    {
      "inputs": [],
      "name": "whitelistedAddresses",
      "outputs": [
        {
          "internalType": "address[]",
          "name": "",
          "type": "address[]"
        }
      ],
      "stateMutability": "view",
      "type": "function"
    },
    {
      "inputs": [],
      "name": "whitelistedMintPrice",
      "outputs": [
        {
          "internalType": "uint256",
          "name": "",
          "type": "uint256"
        }
      ],
      "stateMutability": "view",
      "type": "function"
    }
  ],
  "bytecode": "0x6080604052733e269293485c3a4a8443dc5d89a913062db3982a600d60006101000a81548173ffffffffffffffffffffffffffffffffffffffff021916908373ffffffffffffffffffffffffffffffffffffffff16021790555060405180608001604052806051815260200162004c1060519139600e90805190602001906200008a92919062000282565b506103e8600f556729a2241af62c0000601055671bc16d674ec8000060115560026012556000604655348015620000c057600080fd5b506040518060400160405280601181526020017f59656c6c6f7748656172747354657374320000000000000000000000000000008152506040518060400160405280600681526020017f484541525432000000000000000000000000000000000000000000000000000081525081600090805190602001906200014592919062000282565b5080600190805190602001906200015e92919062000282565b50505062000181620001756200019e60201b60201c565b620001a660201b60201c565b62000198600c6200026c60201b620018d11760201c565b62000397565b600033905090565b6000600b60009054906101000a900473ffffffffffffffffffffffffffffffffffffffff16905081600b60006101000a81548173ffffffffffffffffffffffffffffffffffffffff021916908373ffffffffffffffffffffffffffffffffffffffff1602179055508173ffffffffffffffffffffffffffffffffffffffff168173ffffffffffffffffffffffffffffffffffffffff167f8be0079c531659141344cd1fd0a4f28419497f9722a3daafe3b4186f6b6457e060405160405180910390a35050565b6001816000016000828254019250508190555050565b828054620002909062000332565b90600052602060002090601f016020900481019282620002b4576000855562000300565b82601f10620002cf57805160ff191683800117855562000300565b8280016001018555821562000300579182015b82811115620002ff578251825591602001919060010190620002e2565b5b5090506200030f919062000313565b5090565b5b808211156200032e57600081600090555060010162000314565b5090565b600060028204905060018216806200034b57607f821691505b6020821081141562000362576200036162000368565b5b50919050565b7f4e487b7100000000000000000000000000000000000000000000000000000000600052602260045260246000fd5b61486980620003a76000396000f3fe6080604052600436106101cd5760003560e01c80634685e1a0116100f7578063715018a611610095578063b88d4fde11610064578063b88d4fde1461067b578063c87b56dd146106a4578063e985e9c5146106e1578063f2fde38b1461071e576101cd565b8063715018a6146105e55780638da5cb5b146105fc57806395d89b4114610627578063a22cb46514610652576101cd565b80636352211e116100d15780636352211e146105155780636817c76c14610552578063689490a01461057d57806370a08231146105a8576101cd565b80634685e1a0146104825780634f285fb9146104ad5780634f6ccce7146104d8576101cd565b80632f745c591161016f5780633af32abf1161013e5780633af32abf146103ca5780633c168eab14610407578063415665851461043057806342842e0e14610459576101cd565b80632f745c591461031d57806332c60eef1461035a578063379607f51461038557806339a0c6f9146103a1576101cd565b8063081812fc116101ab578063081812fc14610263578063095ea7b3146102a057806318160ddd146102c957806323b872dd146102f4576101cd565b806301ffc9a7146101d2578063028be8a61461020f57806306fdde0314610238575b600080fd5b3480156101de57600080fd5b506101f960048036038101906101f491906132a0565b610747565b6040516102069190613922565b60405180910390f35b34801561021b57600080fd5b5061023660048036038101906102319190613248565b610759565b005b34801561024457600080fd5b5061024d61084f565b60405161025a919061393d565b60405180910390f35b34801561026f57600080fd5b5061028a60048036038101906102859190613333565b6108e1565b604051610297919061387e565b60405180910390f35b3480156102ac57600080fd5b506102c760048036038101906102c2919061320c565b610966565b005b3480156102d557600080fd5b506102de610a7e565b6040516102eb9190613c5f565b60405180910390f35b34801561030057600080fd5b5061031b60048036038101906103169190613106565b610a8b565b005b34801561032957600080fd5b50610344600480360381019061033f919061320c565b610aeb565b6040516103519190613c5f565b60405180910390f35b34801561036657600080fd5b5061036f610b90565b60405161037c9190613c5f565b60405180910390f35b61039f600480360381019061039a9190613333565b610b96565b005b3480156103ad57600080fd5b506103c860048036038101906103c391906132f2565b610ceb565b005b3480156103d657600080fd5b506103f160048036038101906103ec91906130a1565b610d81565b6040516103fe9190613922565b60405180910390f35b34801561041357600080fd5b5061042e6004803603810190610429919061320c565b610dcd565b005b34801561043c57600080fd5b50610457600480360381019061045291906130a1565b610e61565b005b34801561046557600080fd5b50610480600480360381019061047b9190613106565b61106e565b005b34801561048e57600080fd5b5061049761108e565b6040516104a49190613899565b60405180910390f35b3480156104b957600080fd5b506104c26110b4565b6040516104cf9190613c5f565b60405180910390f35b3480156104e457600080fd5b506104ff60048036038101906104fa9190613333565b6110ba565b60405161050c9190613c5f565b60405180910390f35b34801561052157600080fd5b5061053c60048036038101906105379190613333565b611151565b604051610549919061387e565b60405180910390f35b34801561055e57600080fd5b50610567611203565b6040516105749190613c5f565b60405180910390f35b34801561058957600080fd5b50610592611209565b60405161059f9190613900565b60405180910390f35b3480156105b457600080fd5b506105cf60048036038101906105ca91906130a1565b611377565b6040516105dc9190613c5f565b60405180910390f35b3480156105f157600080fd5b506105fa61142f565b005b34801561060857600080fd5b506106116114b7565b60405161061e919061387e565b60405180910390f35b34801561063357600080fd5b5061063c6114e1565b604051610649919061393d565b60405180910390f35b34801561065e57600080fd5b50610679600480360381019061067491906131d0565b611573565b005b34801561068757600080fd5b506106a2600480360381019061069d9190613155565b611589565b005b3480156106b057600080fd5b506106cb60048036038101906106c69190613333565b6115eb565b6040516106d8919061393d565b60405180910390f35b3480156106ed57600080fd5b50610708600480360381019061070391906130ca565b611745565b6040516107159190613922565b60405180910390f35b34801561072a57600080fd5b50610745600480360381019061074091906130a1565b6117d9565b005b6000610752826118e7565b9050919050565b610761611961565b73ffffffffffffffffffffffffffffffffffffffff1661077f6114b7565b73ffffffffffffffffffffffffffffffffffffffff16146107d5576040517f08c379a00000000000000000000000000000000000000000000000000000000081526004016107cc90613b3f565b60405180910390fd5b60005b818110156108495761083684848381811061081c577f4e487b7100000000000000000000000000000000000000000000000000000000600052603260045260246000fd5b905060200201602081019061083191906130a1565b610e61565b808061084190613fbd565b9150506107d8565b50505050565b60606000805461085e90613f5a565b80601f016020809104026020016040519081016040528092919081815260200182805461088a90613f5a565b80156108d75780601f106108ac576101008083540402835291602001916108d7565b820191906000526020600020905b8154815290600101906020018083116108ba57829003601f168201915b5050505050905090565b60006108ec82611969565b61092b576040517f08c379a000000000000000000000000000000000000000000000000000000000815260040161092290613aff565b60405180910390fd5b6004600083815260200190815260200160002060009054906101000a900473ffffffffffffffffffffffffffffffffffffffff169050919050565b600061097182611151565b90508073ffffffffffffffffffffffffffffffffffffffff168373ffffffffffffffffffffffffffffffffffffffff1614156109e2576040517f08c379a00000000000000000000000000000000000000000000000000000000081526004016109d990613bbf565b60405180910390fd5b8073ffffffffffffffffffffffffffffffffffffffff16610a01611961565b73ffffffffffffffffffffffffffffffffffffffff161480610a305750610a2f81610a2a611961565b611745565b5b610a6f576040517f08c379a0000000000000000000000000000000000000000000000000000000008152600401610a6690613a3f565b60405180910390fd5b610a7983836119d5565b505050565b6000600880549050905090565b610a9c610a96611961565b82611a8e565b610adb576040517f08c379a0000000000000000000000000000000000000000000000000000000008152600401610ad290613bff565b60405180910390fd5b610ae6838383611b6c565b505050565b6000610af683611377565b8210610b37576040517f08c379a0000000000000000000000000000000000000000000000000000000008152600401610b2e9061395f565b60405180910390fd5b600660008473ffffffffffffffffffffffffffffffffffffffff1673ffffffffffffffffffffffffffffffffffffffff168152602001908152602001600020600083815260200190815260200160002054905092915050565b600f5481565b6000610ba2600c611dc8565b9050600082601054610bb49190613e04565b905080341015610bf9576040517f08c379a0000000000000000000000000000000000000000000000000000000008152600401610bf090613adf565b60405180910390fd5b600f5460018484610c0a9190613d7d565b610c149190613e5e565b10610c54576040517f08c379a0000000000000000000000000000000000000000000000000000000008152600401610c4b90613b1f565b60405180910390fd5b600d60009054906101000a900473ffffffffffffffffffffffffffffffffffffffff1673ffffffffffffffffffffffffffffffffffffffff166108fc829081150290604051600060405180830381858888f19350505050158015610cbc573d6000803e3d6000fd5b5060005b83811015610ce557610cd23384610dcd565b8080610cdd90613fbd565b915050610cc0565b50505050565b610cf3611961565b73ffffffffffffffffffffffffffffffffffffffff16610d116114b7565b73ffffffffffffffffffffffffffffffffffffffff1614610d67576040517f08c379a0000000000000000000000000000000000000000000000000000000008152600401610d5e90613b3f565b60405180910390fd5b80600e9080519060200190610d7d929190612e7b565b5050565b600080604560008473ffffffffffffffffffffffffffffffffffffffff1673ffffffffffffffffffffffffffffffffffffffff1681526020019081526020016000205414159050919050565b610dd5611961565b73ffffffffffffffffffffffffffffffffffffffff16610df36114b7565b73ffffffffffffffffffffffffffffffffffffffff1614610e49576040517f08c379a0000000000000000000000000000000000000000000000000000000008152600401610e4090613b3f565b60405180910390fd5b610e538282611dd6565b610e5d600c6118d1565b5050565b610e69611961565b73ffffffffffffffffffffffffffffffffffffffff16610e876114b7565b73ffffffffffffffffffffffffffffffffffffffff1614610edd576040517f08c379a0000000000000000000000000000000000000000000000000000000008152600401610ed490613b3f565b60405180910390fd5b600073ffffffffffffffffffffffffffffffffffffffff168173ffffffffffffffffffffffffffffffffffffffff161415610f4d576040517f08c379a0000000000000000000000000000000000000000000000000000000008152600401610f4490613b5f565b60405180910390fd5b610f5681610d81565b15610f96576040517f08c379a0000000000000000000000000000000000000000000000000000000008152600401610f8d90613bdf565b60405180910390fd5b80601360466000815480929190610fac90613fbd565b9190505560328110610fe7577f4e487b7100000000000000000000000000000000000000000000000000000000600052603260045260246000fd5b0160006101000a81548173ffffffffffffffffffffffffffffffffffffffff021916908373ffffffffffffffffffffffffffffffffffffffff1602179055506002604560008373ffffffffffffffffffffffffffffffffffffffff1673ffffffffffffffffffffffffffffffffffffffff1681526020019081526020016000208190555050565b61108983838360405180602001604052806000815250611589565b505050565b600d60009054906101000a900473ffffffffffffffffffffffffffffffffffffffff1681565b60115481565b60006110c4610a7e565b8210611105576040517f08c379a00000000000000000000000000000000000000000000000000000000081526004016110fc90613c1f565b60405180910390fd5b6008828154811061113f577f4e487b7100000000000000000000000000000000000000000000000000000000600052603260045260246000fd5b90600052602060002001549050919050565b6000806002600084815260200190815260200160002060009054906101000a900473ffffffffffffffffffffffffffffffffffffffff169050600073ffffffffffffffffffffffffffffffffffffffff168173ffffffffffffffffffffffffffffffffffffffff1614156111fa576040517f08c379a00000000000000000000000000000000000000000000000000000000081526004016111f190613a7f565b60405180910390fd5b80915050919050565b60105481565b6060600060465467ffffffffffffffff81111561124f577f4e487b7100000000000000000000000000000000000000000000000000000000600052604160045260246000fd5b60405190808252806020026020018201604052801561127d5781602001602082028036833780820191505090505b50905060005b60465481101561136f57601381603281106112c7577f4e487b7100000000000000000000000000000000000000000000000000000000600052603260045260246000fd5b0160009054906101000a900473ffffffffffffffffffffffffffffffffffffffff16828281518110611322577f4e487b7100000000000000000000000000000000000000000000000000000000600052603260045260246000fd5b602002602001019073ffffffffffffffffffffffffffffffffffffffff16908173ffffffffffffffffffffffffffffffffffffffff1681525050808061136790613fbd565b915050611283565b508091505090565b60008073ffffffffffffffffffffffffffffffffffffffff168273ffffffffffffffffffffffffffffffffffffffff1614156113e8576040517f08c379a00000000000000000000000000000000000000000000000000000000081526004016113df90613a5f565b60405180910390fd5b600360008373ffffffffffffffffffffffffffffffffffffffff1673ffffffffffffffffffffffffffffffffffffffff168152602001908152602001600020549050919050565b611437611961565b73ffffffffffffffffffffffffffffffffffffffff166114556114b7565b73ffffffffffffffffffffffffffffffffffffffff16146114ab576040517f08c379a00000000000000000000000000000000000000000000000000000000081526004016114a290613b3f565b60405180910390fd5b6114b56000611df4565b565b6000600b60009054906101000a900473ffffffffffffffffffffffffffffffffffffffff16905090565b6060600180546114f090613f5a565b80601f016020809104026020016040519081016040528092919081815260200182805461151c90613f5a565b80156115695780601f1061153e57610100808354040283529160200191611569565b820191906000526020600020905b81548152906001019060200180831161154c57829003601f168201915b5050505050905090565b61158561157e611961565b8383611eba565b5050565b61159a611594611961565b83611a8e565b6115d9576040517f08c379a00000000000000000000000000000000000000000000000000000000081526004016115d090613bff565b60405180910390fd5b6115e584848484612027565b50505050565b60606115f682611969565b611635576040517f08c379a000000000000000000000000000000000000000000000000000000000815260040161162c90613c3f565b60405180910390fd5b600060476000848152602001908152602001600020805461165590613f5a565b80601f016020809104026020016040519081016040528092919081815260200182805461168190613f5a565b80156116ce5780601f106116a3576101008083540402835291602001916116ce565b820191906000526020600020905b8154815290600101906020018083116116b157829003601f168201915b5050505050905060006116df612083565b90506000815114156116f5578192505050611740565b600082511115611732578061170985612115565b60405160200161171a92919061384f565b60405160208183030381529060405292505050611740565b61173b846122c2565b925050505b919050565b6000600560008473ffffffffffffffffffffffffffffffffffffffff1673ffffffffffffffffffffffffffffffffffffffff16815260200190815260200160002060008373ffffffffffffffffffffffffffffffffffffffff1673ffffffffffffffffffffffffffffffffffffffff16815260200190815260200160002060009054906101000a900460ff16905092915050565b6117e1611961565b73ffffffffffffffffffffffffffffffffffffffff166117ff6114b7565b73ffffffffffffffffffffffffffffffffffffffff1614611855576040517f08c379a000000000000000000000000000000000000000000000000000000000815260040161184c90613b3f565b60405180910390fd5b600073ffffffffffffffffffffffffffffffffffffffff168173ffffffffffffffffffffffffffffffffffffffff1614156118c5576040517f08c379a00000000000000000000000000000000000000000000000000000000081526004016118bc9061399f565b60405180910390fd5b6118ce81611df4565b50565b6001816000016000828254019250508190555050565b60007f780e9d63000000000000000000000000000000000000000000000000000000007bffffffffffffffffffffffffffffffffffffffffffffffffffffffff1916827bffffffffffffffffffffffffffffffffffffffffffffffffffffffff1916148061195a575061195982612414565b5b9050919050565b600033905090565b60008073ffffffffffffffffffffffffffffffffffffffff166002600084815260200190815260200160002060009054906101000a900473ffffffffffffffffffffffffffffffffffffffff1673ffffffffffffffffffffffffffffffffffffffff1614159050919050565b816004600083815260200190815260200160002060006101000a81548173ffffffffffffffffffffffffffffffffffffffff021916908373ffffffffffffffffffffffffffffffffffffffff160217905550808273ffffffffffffffffffffffffffffffffffffffff16611a4883611151565b73ffffffffffffffffffffffffffffffffffffffff167f8c5be1e5ebec7d5bd14f71427d1e84f3dd0314c0f7b2291e5b200ac8c7c3b92560405160405180910390a45050565b6000611a9982611969565b611ad8576040517f08c379a0000000000000000000000000000000000000000000000000000000008152600401611acf90613a1f565b60405180910390fd5b6000611ae383611151565b90508073ffffffffffffffffffffffffffffffffffffffff168473ffffffffffffffffffffffffffffffffffffffff161480611b5257508373ffffffffffffffffffffffffffffffffffffffff16611b3a846108e1565b73ffffffffffffffffffffffffffffffffffffffff16145b80611b635750611b628185611745565b5b91505092915050565b8273ffffffffffffffffffffffffffffffffffffffff16611b8c82611151565b73ffffffffffffffffffffffffffffffffffffffff1614611be2576040517f08c379a0000000000000000000000000000000000000000000000000000000008152600401611bd990613b7f565b60405180910390fd5b600073ffffffffffffffffffffffffffffffffffffffff168273ffffffffffffffffffffffffffffffffffffffff161415611c52576040517f08c379a0000000000000000000000000000000000000000000000000000000008152600401611c49906139df565b60405180910390fd5b611c5d8383836124f6565b611c686000826119d5565b6001600360008573ffffffffffffffffffffffffffffffffffffffff1673ffffffffffffffffffffffffffffffffffffffff1681526020019081526020016000206000828254611cb89190613e5e565b925050819055506001600360008473ffffffffffffffffffffffffffffffffffffffff1673ffffffffffffffffffffffffffffffffffffffff1681526020019081526020016000206000828254611d0f9190613d7d565b92505081905550816002600083815260200190815260200160002060006101000a81548173ffffffffffffffffffffffffffffffffffffffff021916908373ffffffffffffffffffffffffffffffffffffffff160217905550808273ffffffffffffffffffffffffffffffffffffffff168473ffffffffffffffffffffffffffffffffffffffff167fddf252ad1be2c89b69c2b068fc378daa952ba7f163c4a11628f55a4df523b3ef60405160405180910390a4505050565b600081600001549050919050565b611df0828260405180602001604052806000815250612506565b5050565b6000600b60009054906101000a900473ffffffffffffffffffffffffffffffffffffffff16905081600b60006101000a81548173ffffffffffffffffffffffffffffffffffffffff021916908373ffffffffffffffffffffffffffffffffffffffff1602179055508173ffffffffffffffffffffffffffffffffffffffff168173ffffffffffffffffffffffffffffffffffffffff167f8be0079c531659141344cd1fd0a4f28419497f9722a3daafe3b4186f6b6457e060405160405180910390a35050565b8173ffffffffffffffffffffffffffffffffffffffff168373ffffffffffffffffffffffffffffffffffffffff161415611f29576040517f08c379a0000000000000000000000000000000000000000000000000000000008152600401611f20906139ff565b60405180910390fd5b80600560008573ffffffffffffffffffffffffffffffffffffffff1673ffffffffffffffffffffffffffffffffffffffff16815260200190815260200160002060008473ffffffffffffffffffffffffffffffffffffffff1673ffffffffffffffffffffffffffffffffffffffff16815260200190815260200160002060006101000a81548160ff0219169083151502179055508173ffffffffffffffffffffffffffffffffffffffff168373ffffffffffffffffffffffffffffffffffffffff167f17307eab39ab6107e8899845ad3d59bd9653f200f220920489ca2b5937696c318360405161201a9190613922565b60405180910390a3505050565b612032848484611b6c565b61203e84848484612561565b61207d576040517f08c379a00000000000000000000000000000000000000000000000000000000081526004016120749061397f565b60405180910390fd5b50505050565b6060600e805461209290613f5a565b80601f01602080910402602001604051908101604052809291908181526020018280546120be90613f5a565b801561210b5780601f106120e05761010080835404028352916020019161210b565b820191906000526020600020905b8154815290600101906020018083116120ee57829003601f168201915b5050505050905090565b6060600082141561215d576040518060400160405280600181526020017f300000000000000000000000000000000000000000000000000000000000000081525090506122bd565b600082905060005b6000821461218f57808061217890613fbd565b915050600a826121889190613dd3565b9150612165565b60008167ffffffffffffffff8111156121d1577f4e487b7100000000000000000000000000000000000000000000000000000000600052604160045260246000fd5b6040519080825280601f01601f1916602001820160405280156122035781602001600182028036833780820191505090505b5090505b600085146122b65760018261221c9190613e5e565b9150600a8561222b9190614006565b60306122379190613d7d565b60f81b818381518110612273577f4e487b7100000000000000000000000000000000000000000000000000000000600052603260045260246000fd5b60200101907effffffffffffffffffffffffffffffffffffffffffffffffffffffffffffff1916908160001a905350600a856122af9190613dd3565b9450612207565b8093505050505b919050565b60606122cd82611969565b61230c576040517f08c379a000000000000000000000000000000000000000000000000000000000815260040161230390613abf565b60405180910390fd5b6000600a6000848152602001908152602001600020805461232c90613f5a565b80601f016020809104026020016040519081016040528092919081815260200182805461235890613f5a565b80156123a55780601f1061237a576101008083540402835291602001916123a5565b820191906000526020600020905b81548152906001019060200180831161238857829003601f168201915b5050505050905060006123b6612083565b90506000815114156123cc57819250505061240f565b6000825111156124015780826040516020016123e992919061382b565b6040516020818303038152906040529250505061240f565b61240a846126f8565b925050505b919050565b60007f80ac58cd000000000000000000000000000000000000000000000000000000007bffffffffffffffffffffffffffffffffffffffffffffffffffffffff1916827bffffffffffffffffffffffffffffffffffffffffffffffffffffffff191614806124df57507f5b5e139f000000000000000000000000000000000000000000000000000000007bffffffffffffffffffffffffffffffffffffffffffffffffffffffff1916827bffffffffffffffffffffffffffffffffffffffffffffffffffffffff1916145b806124ef57506124ee8261279f565b5b9050919050565b612501838383612809565b505050565b612510838361291d565b61251d6000848484612561565b61255c576040517f08c379a00000000000000000000000000000000000000000000000000000000081526004016125539061397f565b60405180910390fd5b505050565b60006125828473ffffffffffffffffffffffffffffffffffffffff16612aeb565b156126eb578373ffffffffffffffffffffffffffffffffffffffff1663150b7a026125ab611961565b8786866040518563ffffffff1660e01b81526004016125cd94939291906138b4565b602060405180830381600087803b1580156125e757600080fd5b505af192505050801561261857506040513d601f19601f8201168201806040525081019061261591906132c9565b60015b61269b573d8060008114612648576040519150601f19603f3d011682016040523d82523d6000602084013e61264d565b606091505b50600081511415612693576040517f08c379a000000000000000000000000000000000000000000000000000000000815260040161268a9061397f565b60405180910390fd5b805181602001fd5b63150b7a0260e01b7bffffffffffffffffffffffffffffffffffffffffffffffffffffffff1916817bffffffffffffffffffffffffffffffffffffffffffffffffffffffff1916149150506126f0565b600190505b949350505050565b606061270382611969565b612742576040517f08c379a000000000000000000000000000000000000000000000000000000000815260040161273990613b9f565b60405180910390fd5b600061274c612083565b9050600081511161276c5760405180602001604052806000815250612797565b8061277684612115565b60405160200161278792919061382b565b6040516020818303038152906040525b915050919050565b60007f01ffc9a7000000000000000000000000000000000000000000000000000000007bffffffffffffffffffffffffffffffffffffffffffffffffffffffff1916827bffffffffffffffffffffffffffffffffffffffffffffffffffffffff1916149050919050565b612814838383612afe565b600073ffffffffffffffffffffffffffffffffffffffff168373ffffffffffffffffffffffffffffffffffffffff1614156128575761285281612b03565b612896565b8173ffffffffffffffffffffffffffffffffffffffff168373ffffffffffffffffffffffffffffffffffffffff1614612895576128948382612b4c565b5b5b600073ffffffffffffffffffffffffffffffffffffffff168273ffffffffffffffffffffffffffffffffffffffff1614156128d9576128d481612cb9565b612918565b8273ffffffffffffffffffffffffffffffffffffffff168273ffffffffffffffffffffffffffffffffffffffff1614612917576129168282612dfc565b5b5b505050565b600073ffffffffffffffffffffffffffffffffffffffff168273ffffffffffffffffffffffffffffffffffffffff16141561298d576040517f08c379a000000000000000000000000000000000000000000000000000000000815260040161298490613a9f565b60405180910390fd5b61299681611969565b156129d6576040517f08c379a00000000000000000000000000000000000000000000000000000000081526004016129cd906139bf565b60405180910390fd5b6129e2600083836124f6565b6001600360008473ffffffffffffffffffffffffffffffffffffffff1673ffffffffffffffffffffffffffffffffffffffff1681526020019081526020016000206000828254612a329190613d7d565b92505081905550816002600083815260200190815260200160002060006101000a81548173ffffffffffffffffffffffffffffffffffffffff021916908373ffffffffffffffffffffffffffffffffffffffff160217905550808273ffffffffffffffffffffffffffffffffffffffff16600073ffffffffffffffffffffffffffffffffffffffff167fddf252ad1be2c89b69c2b068fc378daa952ba7f163c4a11628f55a4df523b3ef60405160405180910390a45050565b600080823b905060008111915050919050565b505050565b6008805490506009600083815260200190815260200160002081905550600881908060018154018082558091505060019003906000526020600020016000909190919091505550565b60006001612b5984611377565b612b639190613e5e565b9050600060076000848152602001908152602001600020549050818114612c48576000600660008673ffffffffffffffffffffffffffffffffffffffff1673ffffffffffffffffffffffffffffffffffffffff168152602001908152602001600020600084815260200190815260200160002054905080600660008773ffffffffffffffffffffffffffffffffffffffff1673ffffffffffffffffffffffffffffffffffffffff168152602001908152602001600020600084815260200190815260200160002081905550816007600083815260200190815260200160002081905550505b6007600084815260200190815260200160002060009055600660008573ffffffffffffffffffffffffffffffffffffffff1673ffffffffffffffffffffffffffffffffffffffff16815260200190815260200160002060008381526020019081526020016000206000905550505050565b60006001600880549050612ccd9190613e5e565b9050600060096000848152602001908152602001600020549050600060088381548110612d23577f4e487b7100000000000000000000000000000000000000000000000000000000600052603260045260246000fd5b906000526020600020015490508060088381548110612d6b577f4e487b7100000000000000000000000000000000000000000000000000000000600052603260045260246000fd5b906000526020600020018190555081600960008381526020019081526020016000208190555060096000858152602001908152602001600020600090556008805480612de0577f4e487b7100000000000000000000000000000000000000000000000000000000600052603160045260246000fd5b6001900381819060005260206000200160009055905550505050565b6000612e0783611377565b905081600660008573ffffffffffffffffffffffffffffffffffffffff1673ffffffffffffffffffffffffffffffffffffffff168152602001908152602001600020600083815260200190815260200160002081905550806007600084815260200190815260200160002081905550505050565b828054612e8790613f5a565b90600052602060002090601f016020900481019282612ea95760008555612ef0565b82601f10612ec257805160ff1916838001178555612ef0565b82800160010185558215612ef0579182015b82811115612eef578251825591602001919060010190612ed4565b5b509050612efd9190612f01565b5090565b5b80821115612f1a576000816000905550600101612f02565b5090565b6000612f31612f2c84613c9f565b613c7a565b905082815260208101848484011115612f4957600080fd5b612f54848285613f18565b509392505050565b6000612f6f612f6a84613cd0565b613c7a565b905082815260208101848484011115612f8757600080fd5b612f92848285613f18565b509392505050565b600081359050612fa9816147d7565b92915050565b60008083601f840112612fc157600080fd5b8235905067ffffffffffffffff811115612fda57600080fd5b602083019150836020820283011115612ff257600080fd5b9250929050565b600081359050613008816147ee565b92915050565b60008135905061301d81614805565b92915050565b60008151905061303281614805565b92915050565b600082601f83011261304957600080fd5b8135613059848260208601612f1e565b91505092915050565b600082601f83011261307357600080fd5b8135613083848260208601612f5c565b91505092915050565b60008135905061309b8161481c565b92915050565b6000602082840312156130b357600080fd5b60006130c184828501612f9a565b91505092915050565b600080604083850312156130dd57600080fd5b60006130eb85828601612f9a565b92505060206130fc85828601612f9a565b9150509250929050565b60008060006060848603121561311b57600080fd5b600061312986828701612f9a565b935050602061313a86828701612f9a565b925050604061314b8682870161308c565b9150509250925092565b6000806000806080858703121561316b57600080fd5b600061317987828801612f9a565b945050602061318a87828801612f9a565b935050604061319b8782880161308c565b925050606085013567ffffffffffffffff8111156131b857600080fd5b6131c487828801613038565b91505092959194509250565b600080604083850312156131e357600080fd5b60006131f185828601612f9a565b925050602061320285828601612ff9565b9150509250929050565b6000806040838503121561321f57600080fd5b600061322d85828601612f9a565b925050602061323e8582860161308c565b9150509250929050565b60008060006040848603121561325d57600080fd5b600084013567ffffffffffffffff81111561327757600080fd5b61328386828701612faf565b935093505060206132968682870161308c565b9150509250925092565b6000602082840312156132b257600080fd5b60006132c08482850161300e565b91505092915050565b6000602082840312156132db57600080fd5b60006132e984828501613023565b91505092915050565b60006020828403121561330457600080fd5b600082013567ffffffffffffffff81111561331e57600080fd5b61332a84828501613062565b91505092915050565b60006020828403121561334557600080fd5b60006133538482850161308c565b91505092915050565b60006133688383613383565b60208301905092915050565b61337d81613ea4565b82525050565b61338c81613e92565b82525050565b61339b81613e92565b82525050565b60006133ac82613d11565b6133b68185613d3f565b93506133c183613d01565b8060005b838110156133f25781516133d9888261335c565b97506133e483613d32565b9250506001810190506133c5565b5085935050505092915050565b61340881613eb6565b82525050565b600061341982613d1c565b6134238185613d50565b9350613433818560208601613f27565b61343c816140f3565b840191505092915050565b600061345282613d27565b61345c8185613d61565b935061346c818560208601613f27565b613475816140f3565b840191505092915050565b600061348b82613d27565b6134958185613d72565b93506134a5818560208601613f27565b80840191505092915050565b60006134be602b83613d61565b91506134c982614104565b604082019050919050565b60006134e1603283613d61565b91506134ec82614153565b604082019050919050565b6000613504602683613d61565b915061350f826141a2565b604082019050919050565b6000613527601c83613d61565b9150613532826141f1565b602082019050919050565b600061354a602483613d61565b91506135558261421a565b604082019050919050565b600061356d601983613d61565b915061357882614269565b602082019050919050565b6000613590602c83613d61565b915061359b82614292565b604082019050919050565b60006135b3603883613d61565b91506135be826142e1565b604082019050919050565b60006135d6602a83613d61565b91506135e182614330565b604082019050919050565b60006135f9602983613d61565b91506136048261437f565b604082019050919050565b600061361c602083613d61565b9150613627826143ce565b602082019050919050565b600061363f603183613d61565b915061364a826143f7565b604082019050919050565b6000613662600f83613d61565b915061366d82614446565b602082019050919050565b6000613685602c83613d61565b91506136908261446f565b604082019050919050565b60006136a8600583613d72565b91506136b3826144be565b600582019050919050565b60006136cb602d83613d61565b91506136d6826144e7565b604082019050919050565b60006136ee602083613d61565b91506136f982614536565b602082019050919050565b6000613711602c83613d61565b915061371c8261455f565b604082019050919050565b6000613734602983613d61565b915061373f826145ae565b604082019050919050565b6000613757602f83613d61565b9150613762826145fd565b604082019050919050565b600061377a602183613d61565b91506137858261464c565b604082019050919050565b600061379d602b83613d61565b91506137a88261469b565b604082019050919050565b60006137c0603183613d61565b91506137cb826146ea565b604082019050919050565b60006137e3602c83613d61565b91506137ee82614739565b604082019050919050565b6000613806602283613d61565b915061381182614788565b604082019050919050565b61382581613f0e565b82525050565b60006138378285613480565b91506138438284613480565b91508190509392505050565b600061385b8285613480565b91506138678284613480565b91506138728261369b565b91508190509392505050565b60006020820190506138936000830184613392565b92915050565b60006020820190506138ae6000830184613374565b92915050565b60006080820190506138c96000830187613392565b6138d66020830186613392565b6138e3604083018561381c565b81810360608301526138f5818461340e565b905095945050505050565b6000602082019050818103600083015261391a81846133a1565b905092915050565b600060208201905061393760008301846133ff565b92915050565b600060208201905081810360008301526139578184613447565b905092915050565b60006020820190508181036000830152613978816134b1565b9050919050565b60006020820190508181036000830152613998816134d4565b9050919050565b600060208201905081810360008301526139b8816134f7565b9050919050565b600060208201905081810360008301526139d88161351a565b9050919050565b600060208201905081810360008301526139f88161353d565b9050919050565b60006020820190508181036000830152613a1881613560565b9050919050565b60006020820190508181036000830152613a3881613583565b9050919050565b60006020820190508181036000830152613a58816135a6565b9050919050565b60006020820190508181036000830152613a78816135c9565b9050919050565b60006020820190508181036000830152613a98816135ec565b9050919050565b60006020820190508181036000830152613ab88161360f565b9050919050565b60006020820190508181036000830152613ad881613632565b9050919050565b60006020820190508181036000830152613af881613655565b9050919050565b60006020820190508181036000830152613b1881613678565b9050919050565b60006020820190508181036000830152613b38816136be565b9050919050565b60006020820190508181036000830152613b58816136e1565b9050919050565b60006020820190508181036000830152613b7881613704565b9050919050565b60006020820190508181036000830152613b9881613727565b9050919050565b60006020820190508181036000830152613bb88161374a565b9050919050565b60006020820190508181036000830152613bd88161376d565b9050919050565b60006020820190508181036000830152613bf881613790565b9050919050565b60006020820190508181036000830152613c18816137b3565b9050919050565b60006020820190508181036000830152613c38816137d6565b9050919050565b60006020820190508181036000830152613c58816137f9565b9050919050565b6000602082019050613c74600083018461381c565b92915050565b6000613c84613c95565b9050613c908282613f8c565b919050565b6000604051905090565b600067ffffffffffffffff821115613cba57613cb96140c4565b5b613cc3826140f3565b9050602081019050919050565b600067ffffffffffffffff821115613ceb57613cea6140c4565b5b613cf4826140f3565b9050602081019050919050565b6000819050602082019050919050565b600081519050919050565b600081519050919050565b600081519050919050565b6000602082019050919050565b600082825260208201905092915050565b600082825260208201905092915050565b600082825260208201905092915050565b600081905092915050565b6000613d8882613f0e565b9150613d9383613f0e565b9250827fffffffffffffffffffffffffffffffffffffffffffffffffffffffffffffffff03821115613dc857613dc7614037565b5b828201905092915050565b6000613dde82613f0e565b9150613de983613f0e565b925082613df957613df8614066565b5b828204905092915050565b6000613e0f82613f0e565b9150613e1a83613f0e565b9250817fffffffffffffffffffffffffffffffffffffffffffffffffffffffffffffffff0483118215151615613e5357613e52614037565b5b828202905092915050565b6000613e6982613f0e565b9150613e7483613f0e565b925082821015613e8757613e86614037565b5b828203905092915050565b6000613e9d82613eee565b9050919050565b6000613eaf82613eee565b9050919050565b60008115159050919050565b60007fffffffff0000000000000000000000000000000000000000000000000000000082169050919050565b600073ffffffffffffffffffffffffffffffffffffffff82169050919050565b6000819050919050565b82818337600083830152505050565b60005b83811015613f45578082015181840152602081019050613f2a565b83811115613f54576000848401525b50505050565b60006002820490506001821680613f7257607f821691505b60208210811415613f8657613f85614095565b5b50919050565b613f95826140f3565b810181811067ffffffffffffffff82111715613fb457613fb36140c4565b5b80604052505050565b6000613fc882613f0e565b91507fffffffffffffffffffffffffffffffffffffffffffffffffffffffffffffffff821415613ffb57613ffa614037565b5b600182019050919050565b600061401182613f0e565b915061401c83613f0e565b92508261402c5761402b614066565b5b828206905092915050565b7f4e487b7100000000000000000000000000000000000000000000000000000000600052601160045260246000fd5b7f4e487b7100000000000000000000000000000000000000000000000000000000600052601260045260246000fd5b7f4e487b7100000000000000000000000000000000000000000000000000000000600052602260045260246000fd5b7f4e487b7100000000000000000000000000000000000000000000000000000000600052604160045260246000fd5b6000601f19601f8301169050919050565b7f455243373231456e756d657261626c653a206f776e657220696e646578206f7560008201527f74206f6620626f756e6473000000000000000000000000000000000000000000602082015250565b7f4552433732313a207472616e7366657220746f206e6f6e20455243373231526560008201527f63656976657220696d706c656d656e7465720000000000000000000000000000602082015250565b7f4f776e61626c653a206e6577206f776e657220697320746865207a65726f206160008201527f6464726573730000000000000000000000000000000000000000000000000000602082015250565b7f4552433732313a20746f6b656e20616c7265616479206d696e74656400000000600082015250565b7f4552433732313a207472616e7366657220746f20746865207a65726f2061646460008201527f7265737300000000000000000000000000000000000000000000000000000000602082015250565b7f4552433732313a20617070726f766520746f2063616c6c657200000000000000600082015250565b7f4552433732313a206f70657261746f7220717565727920666f72206e6f6e657860008201527f697374656e7420746f6b656e0000000000000000000000000000000000000000602082015250565b7f4552433732313a20617070726f76652063616c6c6572206973206e6f74206f7760008201527f6e6572206e6f7220617070726f76656420666f7220616c6c0000000000000000602082015250565b7f4552433732313a2062616c616e636520717565727920666f7220746865207a6560008201527f726f206164647265737300000000000000000000000000000000000000000000602082015250565b7f4552433732313a206f776e657220717565727920666f72206e6f6e657869737460008201527f656e7420746f6b656e0000000000000000000000000000000000000000000000602082015250565b7f4552433732313a206d696e7420746f20746865207a65726f2061646472657373600082015250565b7f45524337323155524953746f726167653a2055524920717565727920666f722060008201527f6e6f6e6578697374656e7420746f6b656e000000000000000000000000000000602082015250565b7f496e76616c696420616d6f756e74210000000000000000000000000000000000600082015250565b7f4552433732313a20617070726f76656420717565727920666f72206e6f6e657860008201527f697374656e7420746f6b656e0000000000000000000000000000000000000000602082015250565b7f2e6a736f6e000000000000000000000000000000000000000000000000000000600082015250565b7f43616e6e6f7420636c61696d2074686973206d7563682e205365742061206c6f60008201527f776572207175616e746974792e00000000000000000000000000000000000000602082015250565b7f4f776e61626c653a2063616c6c6572206973206e6f7420746865206f776e6572600082015250565b7f59656c6c6f774865617274733a2063616e6e6f742077686974656c697374207a60008201527f65726f20616464726573732e0000000000000000000000000000000000000000602082015250565b7f4552433732313a207472616e73666572206f6620746f6b656e2074686174206960008201527f73206e6f74206f776e0000000000000000000000000000000000000000000000602082015250565b7f4552433732314d657461646174613a2055524920717565727920666f72206e6f60008201527f6e6578697374656e7420746f6b656e0000000000000000000000000000000000602082015250565b7f4552433732313a20617070726f76616c20746f2063757272656e74206f776e6560008201527f7200000000000000000000000000000000000000000000000000000000000000602082015250565b7f59656c6c6f77486577617274733a206164647265737320616c7265616479207760008201527f686974656c69737465642e000000000000000000000000000000000000000000602082015250565b7f4552433732313a207472616e736665722063616c6c6572206973206e6f74206f60008201527f776e6572206e6f7220617070726f766564000000000000000000000000000000602082015250565b7f455243373231456e756d657261626c653a20676c6f62616c20696e646578206f60008201527f7574206f6620626f756e64730000000000000000000000000000000000000000602082015250565b7f59656c6c6f774865617274733a20746f6b656e20646f65736e2774206578697360008201527f742e000000000000000000000000000000000000000000000000000000000000602082015250565b6147e081613e92565b81146147eb57600080fd5b50565b6147f781613eb6565b811461480257600080fd5b50565b61480e81613ec2565b811461481957600080fd5b50565b61482581613f0e565b811461483057600080fd5b5056fea26469706673582212209c80b4cb6aca0374f6592e88b01b71fa300e6748d8ba2f2d8d1241701e8ad26f64736f6c6343000804003368747470733a2f2f676174657761792e70696e6174612e636c6f75642f697066732f516d65794673477047516a756e6f595631346f6754383673616d42326b724272617950334b37334a4a65663751722f",
  "linkReferences": {},
  "deployedLinkReferences": {}
}